{
	"hw.sol": {
		"HW": {
			"abi": [
				{
					"inputs": [
						{
							"internalType": "uint256",
							"name": "_u",
							"type": "uint256"
						}
					],
					"stateMutability": "nonpayable",
					"type": "constructor"
				},
				{
					"inputs": [
						{
							"internalType": "uint256",
							"name": "x",
							"type": "uint256"
						},
						{
							"internalType": "uint256",
							"name": "y",
							"type": "uint256"
						}
					],
					"name": "addFunction",
					"outputs": [
						{
							"internalType": "uint256",
							"name": "",
							"type": "uint256"
						}
					],
					"stateMutability": "pure",
					"type": "function"
				},
				{
					"inputs": [],
					"name": "addressMy",
					"outputs": [
						{
							"internalType": "address",
							"name": "",
							"type": "address"
						}
					],
					"stateMutability": "view",
					"type": "function"
				},
				{
					"inputs": [],
					"name": "b",
					"outputs": [
						{
							"internalType": "bool",
							"name": "",
							"type": "bool"
						}
					],
					"stateMutability": "view",
					"type": "function"
				},
				{
					"inputs": [],
					"name": "i",
					"outputs": [
						{
							"internalType": "int256",
							"name": "",
							"type": "int256"
						}
					],
					"stateMutability": "view",
					"type": "function"
				},
				{
					"inputs": [],
					"name": "minInt",
					"outputs": [
						{
							"internalType": "int256",
							"name": "",
							"type": "int256"
						}
					],
					"stateMutability": "view",
					"type": "function"
				},
				{
					"inputs": [],
					"name": "minMax",
					"outputs": [
						{
							"internalType": "int256",
							"name": "",
							"type": "int256"
						}
					],
					"stateMutability": "view",
					"type": "function"
				},
				{
					"inputs": [],
					"name": "my",
					"outputs": [
						{
							"internalType": "string",
							"name": "",
							"type": "string"
						}
					],
					"stateMutability": "view",
					"type": "function"
				},
				{
					"inputs": [],
					"name": "u",
					"outputs": [
						{
							"internalType": "uint256",
							"name": "",
							"type": "uint256"
						}
					],
					"stateMutability": "view",
					"type": "function"
				}
			],
			"devdoc": {
				"kind": "dev",
				"methods": {},
				"version": 1
			},
			"evm": {
				"assembly": "    /* \"hw.sol\":57:585  contract HW {... */\n  mstore(0x40, 0x80)\n    /* \"hw.sol\":75:107  string public my = \"Hello world\" */\n  mload(0x40)\n  dup1\n  0x40\n  add\n  0x40\n  mstore\n  dup1\n  0x0b\n  dup2\n  mstore\n  0x20\n  add\n  0x48656c6c6f20776f726c64000000000000000000000000000000000000000000\n  dup2\n  mstore\n  pop\n  0x00\n  swap1\n  dup2\n  tag_1\n  swap2\n  swap1\n  tag_2\n  jump\t// in\ntag_1:\n  pop\n    /* \"hw.sol\":245:249  true */\n  0x01\n    /* \"hw.sol\":229:249  bool public b = true */\n  dup1\n  exp(0x0100, 0x14)\n  dup2\n  sload\n  dup2\n  0xff\n  mul\n  not\n  and\n  swap1\n  dup4\n  iszero\n  iszero\n  mul\n  or\n  swap1\n  sstore\n  pop\n    /* \"hw.sol\":274:275  1 */\n  0x01\n    /* \"hw.sol\":255:275  uint256 public u = 1 */\n  0x02\n  sstore\n    /* \"hw.sol\":332:333  1 */\n  0x01\n    /* \"hw.sol\":314:333  int256 public i = 1 */\n  0x03\n  sstore\n    /* \"hw.sol\":411:427  type(int256).min */\n  0x8000000000000000000000000000000000000000000000000000000000000000\n    /* \"hw.sol\":388:427  int256 public minInt = type(int256).min */\n  0x04\n  sstore\n    /* \"hw.sol\":456:472  type(int256).max */\n  0x7fffffffffffffffffffffffffffffffffffffffffffffffffffffffffffffff\n    /* \"hw.sol\":433:472  int256 public minMax = type(int256).max */\n  0x05\n  sstore\n    /* \"hw.sol\":144:223  constructor(uint256 _u) {... */\n  callvalue\n  dup1\n  iszero\n  tag_3\n  jumpi\n  revert(0x00, 0x00)\ntag_3:\n  pop\n  mload(0x40)\n  sub(codesize, bytecodeSize)\n  dup1\n  bytecodeSize\n  dup4\n  codecopy\n  dup2\n  dup2\n  add\n  0x40\n  mstore\n  dup2\n  add\n  swap1\n  tag_4\n  swap2\n  swap1\n  tag_5\n  jump\t// in\ntag_4:\n    /* \"hw.sol\":182:184  _u */\n  dup1\n    /* \"hw.sol\":178:179  u */\n  0x02\n    /* \"hw.sol\":178:184  u = _u */\n  dup2\n  swap1\n  sstore\n  pop\n    /* \"hw.sol\":206:216  msg.sender */\n  caller\n    /* \"hw.sol\":194:203  addressMy */\n  0x01\n  0x00\n    /* \"hw.sol\":194:216  addressMy = msg.sender */\n  0x0100\n  exp\n  dup2\n  sload\n  dup2\n  0xffffffffffffffffffffffffffffffffffffffff\n  mul\n  not\n  and\n  swap1\n  dup4\n  0xffffffffffffffffffffffffffffffffffffffff\n  and\n  mul\n  or\n  swap1\n  sstore\n  pop\n    /* \"hw.sol\":144:223  constructor(uint256 _u) {... */\n  pop\n    /* \"hw.sol\":57:585  contract HW {... */\n  jump(tag_8)\n    /* \"#utility.yul\":7:106   */\ntag_9:\n    /* \"#utility.yul\":59:65   */\n  0x00\n    /* \"#utility.yul\":93:98   */\n  dup2\n    /* \"#utility.yul\":87:99   */\n  mload\n    /* \"#utility.yul\":77:99   */\n  swap1\n  pop\n    /* \"#utility.yul\":7:106   */\n  swap2\n  swap1\n  pop\n  jump\t// out\n    /* \"#utility.yul\":112:292   */\ntag_10:\n    /* \"#utility.yul\":160:237   */\n  0x4e487b7100000000000000000000000000000000000000000000000000000000\n    /* \"#utility.yul\":157:158   */\n  0x00\n    /* \"#utility.yul\":150:238   */\n  mstore\n    /* \"#utility.yul\":257:261   */\n  0x41\n    /* \"#utility.yul\":254:255   */\n  0x04\n    /* \"#utility.yul\":247:262   */\n  mstore\n    /* \"#utility.yul\":281:285   */\n  0x24\n    /* \"#utility.yul\":278:279   */\n  0x00\n    /* \"#utility.yul\":271:286   */\n  revert\n    /* \"#utility.yul\":298:478   */\ntag_11:\n    /* \"#utility.yul\":346:423   */\n  0x4e487b7100000000000000000000000000000000000000000000000000000000\n    /* \"#utility.yul\":343:344   */\n  0x00\n    /* \"#utility.yul\":336:424   */\n  mstore\n    /* \"#utility.yul\":443:447   */\n  0x22\n    /* \"#utility.yul\":440:441   */\n  0x04\n    /* \"#utility.yul\":433:448   */\n  mstore\n    /* \"#utility.yul\":467:471   */\n  0x24\n    /* \"#utility.yul\":464:465   */\n  0x00\n    /* \"#utility.yul\":457:472   */\n  revert\n    /* \"#utility.yul\":484:804   */\ntag_12:\n    /* \"#utility.yul\":528:534   */\n  0x00\n    /* \"#utility.yul\":565:566   */\n  0x02\n    /* \"#utility.yul\":559:563   */\n  dup3\n    /* \"#utility.yul\":555:567   */\n  div\n    /* \"#utility.yul\":545:567   */\n  swap1\n  pop\n    /* \"#utility.yul\":612:613   */\n  0x01\n    /* \"#utility.yul\":606:610   */\n  dup3\n    /* \"#utility.yul\":602:614   */\n  and\n    /* \"#utility.yul\":633:651   */\n  dup1\n    /* \"#utility.yul\":623:704   */\n  tag_39\n  jumpi\n    /* \"#utility.yul\":689:693   */\n  0x7f\n    /* \"#utility.yul\":681:687   */\n  dup3\n    /* \"#utility.yul\":677:694   */\n  and\n    /* \"#utility.yul\":667:694   */\n  swap2\n  pop\n    /* \"#utility.yul\":623:704   */\ntag_39:\n    /* \"#utility.yul\":751:753   */\n  0x20\n    /* \"#utility.yul\":743:749   */\n  dup3\n    /* \"#utility.yul\":740:754   */\n  lt\n    /* \"#utility.yul\":720:738   */\n  dup2\n    /* \"#utility.yul\":717:755   */\n  sub\n    /* \"#utility.yul\":714:798   */\n  tag_40\n  jumpi\n    /* \"#utility.yul\":770:788   */\n  tag_41\n  tag_11\n  jump\t// in\ntag_41:\n    /* \"#utility.yul\":714:798   */\ntag_40:\n    /* \"#utility.yul\":535:804   */\n  pop\n    /* \"#utility.yul\":484:804   */\n  swap2\n  swap1\n  pop\n  jump\t// out\n    /* \"#utility.yul\":810:951   */\ntag_13:\n    /* \"#utility.yul\":859:863   */\n  0x00\n    /* \"#utility.yul\":882:885   */\n  dup2\n    /* \"#utility.yul\":874:885   */\n  swap1\n  pop\n    /* \"#utility.yul\":905:908   */\n  dup2\n    /* \"#utility.yul\":902:903   */\n  0x00\n    /* \"#utility.yul\":895:909   */\n  mstore\n    /* \"#utility.yul\":939:943   */\n  0x20\n    /* \"#utility.yul\":936:937   */\n  0x00\n    /* \"#utility.yul\":926:944   */\n  keccak256\n    /* \"#utility.yul\":918:944   */\n  swap1\n  pop\n    /* \"#utility.yul\":810:951   */\n  swap2\n  swap1\n  pop\n  jump\t// out\n    /* \"#utility.yul\":957:1050   */\ntag_14:\n    /* \"#utility.yul\":994:1000   */\n  0x00\n    /* \"#utility.yul\":1041:1043   */\n  0x20\n    /* \"#utility.yul\":1036:1038   */\n  0x1f\n    /* \"#utility.yul\":1029:1034   */\n  dup4\n    /* \"#utility.yul\":1025:1039   */\n  add\n    /* \"#utility.yul\":1021:1044   */\n  div\n    /* \"#utility.yul\":1011:1044   */\n  swap1\n  pop\n    /* \"#utility.yul\":957:1050   */\n  swap2\n  swap1\n  pop\n  jump\t// out\n    /* \"#utility.yul\":1056:1163   */\ntag_15:\n    /* \"#utility.yul\":1100:1108   */\n  0x00\n    /* \"#utility.yul\":1150:1155   */\n  dup3\n    /* \"#utility.yul\":1144:1148   */\n  dup3\n    /* \"#utility.yul\":1140:1156   */\n  shl\n    /* \"#utility.yul\":1119:1156   */\n  swap1\n  pop\n    /* \"#utility.yul\":1056:1163   */\n  swap3\n  swap2\n  pop\n  pop\n  jump\t// out\n    /* \"#utility.yul\":1169:1562   */\ntag_16:\n    /* \"#utility.yul\":1238:1244   */\n  0x00\n    /* \"#utility.yul\":1288:1289   */\n  0x08\n    /* \"#utility.yul\":1276:1286   */\n  dup4\n    /* \"#utility.yul\":1272:1290   */\n  mul\n    /* \"#utility.yul\":1311:1408   */\n  tag_46\n    /* \"#utility.yul\":1341:1407   */\n  0xffffffffffffffffffffffffffffffffffffffffffffffffffffffffffffffff\n    /* \"#utility.yul\":1330:1339   */\n  dup3\n    /* \"#utility.yul\":1311:1408   */\n  tag_15\n  jump\t// in\ntag_46:\n    /* \"#utility.yul\":1429:1468   */\n  tag_47\n    /* \"#utility.yul\":1459:1467   */\n  dup7\n    /* \"#utility.yul\":1448:1457   */\n  dup4\n    /* \"#utility.yul\":1429:1468   */\n  tag_15\n  jump\t// in\ntag_47:\n    /* \"#utility.yul\":1417:1468   */\n  swap6\n  pop\n    /* \"#utility.yul\":1501:1505   */\n  dup1\n    /* \"#utility.yul\":1497:1506   */\n  not\n    /* \"#utility.yul\":1490:1495   */\n  dup5\n    /* \"#utility.yul\":1486:1507   */\n  and\n    /* \"#utility.yul\":1477:1507   */\n  swap4\n  pop\n    /* \"#utility.yul\":1550:1554   */\n  dup1\n    /* \"#utility.yul\":1540:1548   */\n  dup7\n    /* \"#utility.yul\":1536:1555   */\n  and\n    /* \"#utility.yul\":1529:1534   */\n  dup5\n    /* \"#utility.yul\":1526:1556   */\n  or\n    /* \"#utility.yul\":1516:1556   */\n  swap3\n  pop\n    /* \"#utility.yul\":1245:1562   */\n  pop\n  pop\n    /* \"#utility.yul\":1169:1562   */\n  swap4\n  swap3\n  pop\n  pop\n  pop\n  jump\t// out\n    /* \"#utility.yul\":1568:1645   */\ntag_17:\n    /* \"#utility.yul\":1605:1612   */\n  0x00\n    /* \"#utility.yul\":1634:1639   */\n  dup2\n    /* \"#utility.yul\":1623:1639   */\n  swap1\n  pop\n    /* \"#utility.yul\":1568:1645   */\n  swap2\n  swap1\n  pop\n  jump\t// out\n    /* \"#utility.yul\":1651:1711   */\ntag_18:\n    /* \"#utility.yul\":1679:1682   */\n  0x00\n    /* \"#utility.yul\":1700:1705   */\n  dup2\n    /* \"#utility.yul\":1693:1705   */\n  swap1\n  pop\n    /* \"#utility.yul\":1651:1711   */\n  swap2\n  swap1\n  pop\n  jump\t// out\n    /* \"#utility.yul\":1717:1859   */\ntag_19:\n    /* \"#utility.yul\":1767:1776   */\n  0x00\n    /* \"#utility.yul\":1800:1853   */\n  tag_51\n    /* \"#utility.yul\":1818:1852   */\n  tag_52\n    /* \"#utility.yul\":1827:1851   */\n  tag_53\n    /* \"#utility.yul\":1845:1850   */\n  dup5\n    /* \"#utility.yul\":1827:1851   */\n  tag_17\n  jump\t// in\ntag_53:\n    /* \"#utility.yul\":1818:1852   */\n  tag_18\n  jump\t// in\ntag_52:\n    /* \"#utility.yul\":1800:1853   */\n  tag_17\n  jump\t// in\ntag_51:\n    /* \"#utility.yul\":1787:1853   */\n  swap1\n  pop\n    /* \"#utility.yul\":1717:1859   */\n  swap2\n  swap1\n  pop\n  jump\t// out\n    /* \"#utility.yul\":1865:1940   */\ntag_20:\n    /* \"#utility.yul\":1908:1911   */\n  0x00\n    /* \"#utility.yul\":1929:1934   */\n  dup2\n    /* \"#utility.yul\":1922:1934   */\n  swap1\n  pop\n    /* \"#utility.yul\":1865:1940   */\n  swap2\n  swap1\n  pop\n  jump\t// out\n    /* \"#utility.yul\":1946:2215   */\ntag_21:\n    /* \"#utility.yul\":2056:2095   */\n  tag_56\n    /* \"#utility.yul\":2087:2094   */\n  dup4\n    /* \"#utility.yul\":2056:2095   */\n  tag_19\n  jump\t// in\ntag_56:\n    /* \"#utility.yul\":2117:2208   */\n  tag_57\n    /* \"#utility.yul\":2166:2207   */\n  tag_58\n    /* \"#utility.yul\":2190:2206   */\n  dup3\n    /* \"#utility.yul\":2166:2207   */\n  tag_20\n  jump\t// in\ntag_58:\n    /* \"#utility.yul\":2158:2164   */\n  dup5\n    /* \"#utility.yul\":2151:2155   */\n  dup5\n    /* \"#utility.yul\":2145:2156   */\n  sload\n    /* \"#utility.yul\":2117:2208   */\n  tag_16\n  jump\t// in\ntag_57:\n    /* \"#utility.yul\":2111:2115   */\n  dup3\n    /* \"#utility.yul\":2104:2209   */\n  sstore\n    /* \"#utility.yul\":2022:2215   */\n  pop\n    /* \"#utility.yul\":1946:2215   */\n  pop\n  pop\n  pop\n  jump\t// out\n    /* \"#utility.yul\":2221:2294   */\ntag_22:\n    /* \"#utility.yul\":2266:2269   */\n  0x00\n    /* \"#utility.yul\":2287:2288   */\n  0x00\n    /* \"#utility.yul\":2280:2288   */\n  swap1\n  pop\n    /* \"#utility.yul\":2221:2294   */\n  swap1\n  jump\t// out\n    /* \"#utility.yul\":2300:2489   */\ntag_23:\n    /* \"#utility.yul\":2377:2409   */\n  tag_61\n  tag_22\n  jump\t// in\ntag_61:\n    /* \"#utility.yul\":2418:2483   */\n  tag_62\n    /* \"#utility.yul\":2476:2482   */\n  dup2\n    /* \"#utility.yul\":2468:2474   */\n  dup5\n    /* \"#utility.yul\":2462:2466   */\n  dup5\n    /* \"#utility.yul\":2418:2483   */\n  tag_21\n  jump\t// in\ntag_62:\n    /* \"#utility.yul\":2353:2489   */\n  pop\n    /* \"#utility.yul\":2300:2489   */\n  pop\n  pop\n  jump\t// out\n    /* \"#utility.yul\":2495:2681   */\ntag_24:\n    /* \"#utility.yul\":2555:2675   */\ntag_64:\n    /* \"#utility.yul\":2572:2575   */\n  dup2\n    /* \"#utility.yul\":2565:2570   */\n  dup2\n    /* \"#utility.yul\":2562:2576   */\n  lt\n    /* \"#utility.yul\":2555:2675   */\n  iszero\n  tag_66\n  jumpi\n    /* \"#utility.yul\":2626:2665   */\n  tag_67\n    /* \"#utility.yul\":2663:2664   */\n  0x00\n    /* \"#utility.yul\":2656:2661   */\n  dup3\n    /* \"#utility.yul\":2626:2665   */\n  tag_23\n  jump\t// in\ntag_67:\n    /* \"#utility.yul\":2599:2600   */\n  0x01\n    /* \"#utility.yul\":2592:2597   */\n  dup2\n    /* \"#utility.yul\":2588:2601   */\n  add\n    /* \"#utility.yul\":2579:2601   */\n  swap1\n  pop\n    /* \"#utility.yul\":2555:2675   */\n  jump(tag_64)\ntag_66:\n    /* \"#utility.yul\":2495:2681   */\n  pop\n  pop\n  jump\t// out\n    /* \"#utility.yul\":2687:3230   */\ntag_25:\n    /* \"#utility.yul\":2788:2790   */\n  0x1f\n    /* \"#utility.yul\":2783:2786   */\n  dup3\n    /* \"#utility.yul\":2780:2791   */\n  gt\n    /* \"#utility.yul\":2777:3223   */\n  iszero\n  tag_69\n  jumpi\n    /* \"#utility.yul\":2822:2860   */\n  tag_70\n    /* \"#utility.yul\":2854:2859   */\n  dup2\n    /* \"#utility.yul\":2822:2860   */\n  tag_13\n  jump\t// in\ntag_70:\n    /* \"#utility.yul\":2906:2935   */\n  tag_71\n    /* \"#utility.yul\":2924:2934   */\n  dup5\n    /* \"#utility.yul\":2906:2935   */\n  tag_14\n  jump\t// in\ntag_71:\n    /* \"#utility.yul\":2896:2904   */\n  dup2\n    /* \"#utility.yul\":2892:2936   */\n  add\n    /* \"#utility.yul\":3089:3091   */\n  0x20\n    /* \"#utility.yul\":3077:3087   */\n  dup6\n    /* \"#utility.yul\":3074:3092   */\n  lt\n    /* \"#utility.yul\":3071:3120   */\n  iszero\n  tag_72\n  jumpi\n    /* \"#utility.yul\":3110:3118   */\n  dup2\n    /* \"#utility.yul\":3095:3118   */\n  swap1\n  pop\n    /* \"#utility.yul\":3071:3120   */\ntag_72:\n    /* \"#utility.yul\":3133:3213   */\n  tag_73\n    /* \"#utility.yul\":3189:3211   */\n  tag_74\n    /* \"#utility.yul\":3207:3210   */\n  dup6\n    /* \"#utility.yul\":3189:3211   */\n  tag_14\n  jump\t// in\ntag_74:\n    /* \"#utility.yul\":3179:3187   */\n  dup4\n    /* \"#utility.yul\":3175:3212   */\n  add\n    /* \"#utility.yul\":3162:3173   */\n  dup3\n    /* \"#utility.yul\":3133:3213   */\n  tag_24\n  jump\t// in\ntag_73:\n    /* \"#utility.yul\":2792:3223   */\n  pop\n  pop\n    /* \"#utility.yul\":2777:3223   */\ntag_69:\n    /* \"#utility.yul\":2687:3230   */\n  pop\n  pop\n  pop\n  jump\t// out\n    /* \"#utility.yul\":3236:3353   */\ntag_26:\n    /* \"#utility.yul\":3290:3298   */\n  0x00\n    /* \"#utility.yul\":3340:3345   */\n  dup3\n    /* \"#utility.yul\":3334:3338   */\n  dup3\n    /* \"#utility.yul\":3330:3346   */\n  shr\n    /* \"#utility.yul\":3309:3346   */\n  swap1\n  pop\n    /* \"#utility.yul\":3236:3353   */\n  swap3\n  swap2\n  pop\n  pop\n  jump\t// out\n    /* \"#utility.yul\":3359:3528   */\ntag_27:\n    /* \"#utility.yul\":3403:3409   */\n  0x00\n    /* \"#utility.yul\":3436:3487   */\n  tag_77\n    /* \"#utility.yul\":3484:3485   */\n  0x00\n    /* \"#utility.yul\":3480:3486   */\n  not\n    /* \"#utility.yul\":3472:3477   */\n  dup5\n    /* \"#utility.yul\":3469:3470   */\n  0x08\n    /* \"#utility.yul\":3465:3478   */\n  mul\n    /* \"#utility.yul\":3436:3487   */\n  tag_26\n  jump\t// in\ntag_77:\n    /* \"#utility.yul\":3432:3488   */\n  not\n    /* \"#utility.yul\":3517:3521   */\n  dup1\n    /* \"#utility.yul\":3511:3515   */\n  dup4\n    /* \"#utility.yul\":3507:3522   */\n  and\n    /* \"#utility.yul\":3497:3522   */\n  swap2\n  pop\n    /* \"#utility.yul\":3410:3528   */\n  pop\n    /* \"#utility.yul\":3359:3528   */\n  swap3\n  swap2\n  pop\n  pop\n  jump\t// out\n    /* \"#utility.yul\":3533:3828   */\ntag_28:\n    /* \"#utility.yul\":3609:3613   */\n  0x00\n    /* \"#utility.yul\":3755:3784   */\n  tag_79\n    /* \"#utility.yul\":3780:3783   */\n  dup4\n    /* \"#utility.yul\":3774:3778   */\n  dup4\n    /* \"#utility.yul\":3755:3784   */\n  tag_27\n  jump\t// in\ntag_79:\n    /* \"#utility.yul\":3747:3784   */\n  swap2\n  pop\n    /* \"#utility.yul\":3817:3820   */\n  dup3\n    /* \"#utility.yul\":3814:3815   */\n  0x02\n    /* \"#utility.yul\":3810:3821   */\n  mul\n    /* \"#utility.yul\":3804:3808   */\n  dup3\n    /* \"#utility.yul\":3801:3822   */\n  or\n    /* \"#utility.yul\":3793:3822   */\n  swap1\n  pop\n    /* \"#utility.yul\":3533:3828   */\n  swap3\n  swap2\n  pop\n  pop\n  jump\t// out\n    /* \"#utility.yul\":3833:5228   */\ntag_2:\n    /* \"#utility.yul\":3950:3987   */\n  tag_81\n    /* \"#utility.yul\":3983:3986   */\n  dup3\n    /* \"#utility.yul\":3950:3987   */\n  tag_9\n  jump\t// in\ntag_81:\n    /* \"#utility.yul\":4052:4070   */\n  0xffffffffffffffff\n    /* \"#utility.yul\":4044:4050   */\n  dup2\n    /* \"#utility.yul\":4041:4071   */\n  gt\n    /* \"#utility.yul\":4038:4094   */\n  iszero\n  tag_82\n  jumpi\n    /* \"#utility.yul\":4074:4092   */\n  tag_83\n  tag_10\n  jump\t// in\ntag_83:\n    /* \"#utility.yul\":4038:4094   */\ntag_82:\n    /* \"#utility.yul\":4118:4156   */\n  tag_84\n    /* \"#utility.yul\":4150:4154   */\n  dup3\n    /* \"#utility.yul\":4144:4155   */\n  sload\n    /* \"#utility.yul\":4118:4156   */\n  tag_12\n  jump\t// in\ntag_84:\n    /* \"#utility.yul\":4203:4270   */\n  tag_85\n    /* \"#utility.yul\":4263:4269   */\n  dup3\n    /* \"#utility.yul\":4255:4261   */\n  dup3\n    /* \"#utility.yul\":4249:4253   */\n  dup6\n    /* \"#utility.yul\":4203:4270   */\n  tag_25\n  jump\t// in\ntag_85:\n    /* \"#utility.yul\":4297:4298   */\n  0x00\n    /* \"#utility.yul\":4321:4325   */\n  0x20\n    /* \"#utility.yul\":4308:4325   */\n  swap1\n  pop\n    /* \"#utility.yul\":4353:4355   */\n  0x1f\n    /* \"#utility.yul\":4345:4351   */\n  dup4\n    /* \"#utility.yul\":4342:4356   */\n  gt\n    /* \"#utility.yul\":4370:4371   */\n  0x01\n    /* \"#utility.yul\":4365:4983   */\n  dup2\n  eq\n  tag_87\n  jumpi\n    /* \"#utility.yul\":5027:5028   */\n  0x00\n    /* \"#utility.yul\":5044:5050   */\n  dup5\n    /* \"#utility.yul\":5041:5118   */\n  iszero\n  tag_88\n  jumpi\n    /* \"#utility.yul\":5093:5102   */\n  dup3\n    /* \"#utility.yul\":5088:5091   */\n  dup8\n    /* \"#utility.yul\":5084:5103   */\n  add\n    /* \"#utility.yul\":5078:5104   */\n  mload\n    /* \"#utility.yul\":5069:5104   */\n  swap1\n  pop\n    /* \"#utility.yul\":5041:5118   */\ntag_88:\n    /* \"#utility.yul\":5144:5211   */\n  tag_89\n    /* \"#utility.yul\":5204:5210   */\n  dup6\n    /* \"#utility.yul\":5197:5202   */\n  dup3\n    /* \"#utility.yul\":5144:5211   */\n  tag_28\n  jump\t// in\ntag_89:\n    /* \"#utility.yul\":5138:5142   */\n  dup7\n    /* \"#utility.yul\":5131:5212   */\n  sstore\n    /* \"#utility.yul\":5000:5222   */\n  pop\n    /* \"#utility.yul\":4335:5222   */\n  jump(tag_86)\n    /* \"#utility.yul\":4365:4983   */\ntag_87:\n    /* \"#utility.yul\":4417:4421   */\n  0x1f\n    /* \"#utility.yul\":4413:4422   */\n  not\n    /* \"#utility.yul\":4405:4411   */\n  dup5\n    /* \"#utility.yul\":4401:4423   */\n  and\n    /* \"#utility.yul\":4451:4488   */\n  tag_90\n    /* \"#utility.yul\":4483:4487   */\n  dup7\n    /* \"#utility.yul\":4451:4488   */\n  tag_13\n  jump\t// in\ntag_90:\n    /* \"#utility.yul\":4510:4511   */\n  0x00\n    /* \"#utility.yul\":4524:4732   */\ntag_91:\n    /* \"#utility.yul\":4538:4545   */\n  dup3\n    /* \"#utility.yul\":4535:4536   */\n  dup2\n    /* \"#utility.yul\":4532:4546   */\n  lt\n    /* \"#utility.yul\":4524:4732   */\n  iszero\n  tag_93\n  jumpi\n    /* \"#utility.yul\":4617:4626   */\n  dup5\n    /* \"#utility.yul\":4612:4615   */\n  dup10\n    /* \"#utility.yul\":4608:4627   */\n  add\n    /* \"#utility.yul\":4602:4628   */\n  mload\n    /* \"#utility.yul\":4594:4600   */\n  dup3\n    /* \"#utility.yul\":4587:4629   */\n  sstore\n    /* \"#utility.yul\":4668:4669   */\n  0x01\n    /* \"#utility.yul\":4660:4666   */\n  dup3\n    /* \"#utility.yul\":4656:4670   */\n  add\n    /* \"#utility.yul\":4646:4670   */\n  swap2\n  pop\n    /* \"#utility.yul\":4715:4717   */\n  0x20\n    /* \"#utility.yul\":4704:4713   */\n  dup6\n    /* \"#utility.yul\":4700:4718   */\n  add\n    /* \"#utility.yul\":4687:4718   */\n  swap5\n  pop\n    /* \"#utility.yul\":4561:4565   */\n  0x20\n    /* \"#utility.yul\":4558:4559   */\n  dup2\n    /* \"#utility.yul\":4554:4566   */\n  add\n    /* \"#utility.yul\":4549:4566   */\n  swap1\n  pop\n    /* \"#utility.yul\":4524:4732   */\n  jump(tag_91)\ntag_93:\n    /* \"#utility.yul\":4760:4766   */\n  dup7\n    /* \"#utility.yul\":4751:4758   */\n  dup4\n    /* \"#utility.yul\":4748:4767   */\n  lt\n    /* \"#utility.yul\":4745:4924   */\n  iszero\n  tag_94\n  jumpi\n    /* \"#utility.yul\":4818:4827   */\n  dup5\n    /* \"#utility.yul\":4813:4816   */\n  dup10\n    /* \"#utility.yul\":4809:4828   */\n  add\n    /* \"#utility.yul\":4803:4829   */\n  mload\n    /* \"#utility.yul\":4861:4909   */\n  tag_95\n    /* \"#utility.yul\":4903:4907   */\n  0x1f\n    /* \"#utility.yul\":4895:4901   */\n  dup10\n    /* \"#utility.yul\":4891:4908   */\n  and\n    /* \"#utility.yul\":4880:4889   */\n  dup3\n    /* \"#utility.yul\":4861:4909   */\n  tag_27\n  jump\t// in\ntag_95:\n    /* \"#utility.yul\":4853:4859   */\n  dup4\n    /* \"#utility.yul\":4846:4910   */\n  sstore\n    /* \"#utility.yul\":4768:4924   */\n  pop\n    /* \"#utility.yul\":4745:4924   */\ntag_94:\n    /* \"#utility.yul\":4970:4971   */\n  0x01\n    /* \"#utility.yul\":4966:4967   */\n  0x02\n    /* \"#utility.yul\":4958:4964   */\n  dup9\n    /* \"#utility.yul\":4954:4968   */\n  mul\n    /* \"#utility.yul\":4950:4972   */\n  add\n    /* \"#utility.yul\":4944:4948   */\n  dup9\n    /* \"#utility.yul\":4937:4973   */\n  sstore\n    /* \"#utility.yul\":4372:4983   */\n  pop\n  pop\n  pop\n    /* \"#utility.yul\":4335:5222   */\ntag_86:\n  pop\n    /* \"#utility.yul\":3925:5228   */\n  pop\n  pop\n  pop\n    /* \"#utility.yul\":3833:5228   */\n  pop\n  pop\n  jump\t// out\n    /* \"#utility.yul\":5315:5432   */\ntag_30:\n    /* \"#utility.yul\":5424:5425   */\n  0x00\n    /* \"#utility.yul\":5421:5422   */\n  0x00\n    /* \"#utility.yul\":5414:5426   */\n  revert\n    /* \"#utility.yul\":5561:5683   */\ntag_32:\n    /* \"#utility.yul\":5634:5658   */\n  tag_100\n    /* \"#utility.yul\":5652:5657   */\n  dup2\n    /* \"#utility.yul\":5634:5658   */\n  tag_17\n  jump\t// in\ntag_100:\n    /* \"#utility.yul\":5627:5632   */\n  dup2\n    /* \"#utility.yul\":5624:5659   */\n  eq\n    /* \"#utility.yul\":5614:5677   */\n  tag_101\n  jumpi\n    /* \"#utility.yul\":5673:5674   */\n  0x00\n    /* \"#utility.yul\":5670:5671   */\n  0x00\n    /* \"#utility.yul\":5663:5675   */\n  revert\n    /* \"#utility.yul\":5614:5677   */\ntag_101:\n    /* \"#utility.yul\":5561:5683   */\n  pop\n  jump\t// out\n    /* \"#utility.yul\":5689:5832   */\ntag_33:\n    /* \"#utility.yul\":5746:5751   */\n  0x00\n    /* \"#utility.yul\":5777:5783   */\n  dup2\n    /* \"#utility.yul\":5771:5784   */\n  mload\n    /* \"#utility.yul\":5762:5784   */\n  swap1\n  pop\n    /* \"#utility.yul\":5793:5826   */\n  tag_103\n    /* \"#utility.yul\":5820:5825   */\n  dup2\n    /* \"#utility.yul\":5793:5826   */\n  tag_32\n  jump\t// in\ntag_103:\n    /* \"#utility.yul\":5689:5832   */\n  swap3\n  swap2\n  pop\n  pop\n  jump\t// out\n    /* \"#utility.yul\":5838:6189   */\ntag_5:\n    /* \"#utility.yul\":5908:5914   */\n  0x00\n    /* \"#utility.yul\":5957:5959   */\n  0x20\n    /* \"#utility.yul\":5945:5954   */\n  dup3\n    /* \"#utility.yul\":5936:5943   */\n  dup5\n    /* \"#utility.yul\":5932:5955   */\n  sub\n    /* \"#utility.yul\":5928:5960   */\n  slt\n    /* \"#utility.yul\":5925:6044   */\n  iszero\n  tag_105\n  jumpi\n    /* \"#utility.yul\":5963:6042   */\n  tag_106\n  tag_30\n  jump\t// in\ntag_106:\n    /* \"#utility.yul\":5925:6044   */\ntag_105:\n    /* \"#utility.yul\":6083:6084   */\n  0x00\n    /* \"#utility.yul\":6108:6172   */\n  tag_107\n    /* \"#utility.yul\":6164:6171   */\n  dup5\n    /* \"#utility.yul\":6155:6161   */\n  dup3\n    /* \"#utility.yul\":6144:6153   */\n  dup6\n    /* \"#utility.yul\":6140:6162   */\n  add\n    /* \"#utility.yul\":6108:6172   */\n  tag_33\n  jump\t// in\ntag_107:\n    /* \"#utility.yul\":6098:6172   */\n  swap2\n  pop\n    /* \"#utility.yul\":6054:6182   */\n  pop\n    /* \"#utility.yul\":5838:6189   */\n  swap3\n  swap2\n  pop\n  pop\n  jump\t// out\n    /* \"hw.sol\":57:585  contract HW {... */\ntag_8:\n  dataSize(sub_0)\n  dup1\n  dataOffset(sub_0)\n  0x00\n  codecopy\n  0x00\n  return\nstop\n\nsub_0: assembly {\n        /* \"hw.sol\":57:585  contract HW {... */\n      mstore(0x40, 0x80)\n      callvalue\n      dup1\n      iszero\n      tag_1\n      jumpi\n      revert(0x00, 0x00)\n    tag_1:\n      pop\n      jumpi(tag_2, lt(calldatasize, 0x04))\n      shr(0xe0, calldataload(0x00))\n      dup1\n      0x7e4e14cc\n      gt\n      tag_11\n      jumpi\n      dup1\n      0x7e4e14cc\n      eq\n      tag_7\n      jumpi\n      dup1\n      0xb5907928\n      eq\n      tag_8\n      jumpi\n      dup1\n      0xc6a898c5\n      eq\n      tag_9\n      jumpi\n      dup1\n      0xe5aa3d58\n      eq\n      tag_10\n      jumpi\n      jump(tag_2)\n    tag_11:\n      dup1\n      0x0f0cb966\n      eq\n      tag_3\n      jumpi\n      dup1\n      0x1ea76c9d\n      eq\n      tag_4\n      jumpi\n      dup1\n      0x21e17a91\n      eq\n      tag_5\n      jumpi\n      dup1\n      0x4df7e3d0\n      eq\n      tag_6\n      jumpi\n    tag_2:\n      revert(0x00, 0x00)\n        /* \"hw.sol\":75:107  string public my = \"Hello world\" */\n    tag_3:\n      tag_12\n      tag_13\n      jump\t// in\n    tag_12:\n      mload(0x40)\n      tag_14\n      swap2\n      swap1\n      tag_15\n      jump\t// in\n    tag_14:\n      mload(0x40)\n      dup1\n      swap2\n      sub\n      swap1\n      return\n        /* \"hw.sol\":113:137  address public addressMy */\n    tag_4:\n      tag_16\n      tag_17\n      jump\t// in\n    tag_16:\n      mload(0x40)\n      tag_18\n      swap2\n      swap1\n      tag_19\n      jump\t// in\n    tag_18:\n      mload(0x40)\n      dup1\n      swap2\n      sub\n      swap1\n      return\n        /* \"hw.sol\":433:472  int256 public minMax = type(int256).max */\n    tag_5:\n      tag_20\n      tag_21\n      jump\t// in\n    tag_20:\n      mload(0x40)\n      tag_22\n      swap2\n      swap1\n      tag_23\n      jump\t// in\n    tag_22:\n      mload(0x40)\n      dup1\n      swap2\n      sub\n      swap1\n      return\n        /* \"hw.sol\":229:249  bool public b = true */\n    tag_6:\n      tag_24\n      tag_25\n      jump\t// in\n    tag_24:\n      mload(0x40)\n      tag_26\n      swap2\n      swap1\n      tag_27\n      jump\t// in\n    tag_26:\n      mload(0x40)\n      dup1\n      swap2\n      sub\n      swap1\n      return\n        /* \"hw.sol\":388:427  int256 public minInt = type(int256).min */\n    tag_7:\n      tag_28\n      tag_29\n      jump\t// in\n    tag_28:\n      mload(0x40)\n      tag_30\n      swap2\n      swap1\n      tag_23\n      jump\t// in\n    tag_30:\n      mload(0x40)\n      dup1\n      swap2\n      sub\n      swap1\n      return\n        /* \"hw.sol\":479:583  function addFunction(uint256 x, uint256 y) external pure returns (uint256) {... */\n    tag_8:\n      tag_31\n      0x04\n      dup1\n      calldatasize\n      sub\n      dup2\n      add\n      swap1\n      tag_32\n      swap2\n      swap1\n      tag_33\n      jump\t// in\n    tag_32:\n      tag_34\n      jump\t// in\n    tag_31:\n      mload(0x40)\n      tag_35\n      swap2\n      swap1\n      tag_36\n      jump\t// in\n    tag_35:\n      mload(0x40)\n      dup1\n      swap2\n      sub\n      swap1\n      return\n        /* \"hw.sol\":255:275  uint256 public u = 1 */\n    tag_9:\n      tag_37\n      tag_38\n      jump\t// in\n    tag_37:\n      mload(0x40)\n      tag_39\n      swap2\n      swap1\n      tag_36\n      jump\t// in\n    tag_39:\n      mload(0x40)\n      dup1\n      swap2\n      sub\n      swap1\n      return\n        /* \"hw.sol\":314:333  int256 public i = 1 */\n    tag_10:\n      tag_40\n      tag_41\n      jump\t// in\n    tag_40:\n      mload(0x40)\n      tag_42\n      swap2\n      swap1\n      tag_23\n      jump\t// in\n    tag_42:\n      mload(0x40)\n      dup1\n      swap2\n      sub\n      swap1\n      return\n        /* \"hw.sol\":75:107  string public my = \"Hello world\" */\n    tag_13:\n      0x00\n      dup1\n      sload\n      tag_43\n      swap1\n      tag_44\n      jump\t// in\n    tag_43:\n      dup1\n      0x1f\n      add\n      0x20\n      dup1\n      swap2\n      div\n      mul\n      0x20\n      add\n      mload(0x40)\n      swap1\n      dup2\n      add\n      0x40\n      mstore\n      dup1\n      swap3\n      swap2\n      swap1\n      dup2\n      dup2\n      mstore\n      0x20\n      add\n      dup3\n      dup1\n      sload\n      tag_45\n      swap1\n      tag_44\n      jump\t// in\n    tag_45:\n      dup1\n      iszero\n      tag_46\n      jumpi\n      dup1\n      0x1f\n      lt\n      tag_47\n      jumpi\n      0x0100\n      dup1\n      dup4\n      sload\n      div\n      mul\n      dup4\n      mstore\n      swap2\n      0x20\n      add\n      swap2\n      jump(tag_46)\n    tag_47:\n      dup3\n      add\n      swap2\n      swap1\n      0x00\n      mstore\n      keccak256(0x00, 0x20)\n      swap1\n    tag_48:\n      dup2\n      sload\n      dup2\n      mstore\n      swap1\n      0x01\n      add\n      swap1\n      0x20\n      add\n      dup1\n      dup4\n      gt\n      tag_48\n      jumpi\n      dup3\n      swap1\n      sub\n      0x1f\n      and\n      dup3\n      add\n      swap2\n    tag_46:\n      pop\n      pop\n      pop\n      pop\n      pop\n      dup2\n      jump\t// out\n        /* \"hw.sol\":113:137  address public addressMy */\n    tag_17:\n      0x01\n      0x00\n      swap1\n      sload\n      swap1\n      0x0100\n      exp\n      swap1\n      div\n      0xffffffffffffffffffffffffffffffffffffffff\n      and\n      dup2\n      jump\t// out\n        /* \"hw.sol\":433:472  int256 public minMax = type(int256).max */\n    tag_21:\n      sload(0x05)\n      dup2\n      jump\t// out\n        /* \"hw.sol\":229:249  bool public b = true */\n    tag_25:\n      0x01\n      0x14\n      swap1\n      sload\n      swap1\n      0x0100\n      exp\n      swap1\n      div\n      0xff\n      and\n      dup2\n      jump\t// out\n        /* \"hw.sol\":388:427  int256 public minInt = type(int256).min */\n    tag_29:\n      sload(0x04)\n      dup2\n      jump\t// out\n        /* \"hw.sol\":479:583  function addFunction(uint256 x, uint256 y) external pure returns (uint256) {... */\n    tag_34:\n        /* \"hw.sol\":545:552  uint256 */\n      0x00\n        /* \"hw.sol\":575:576  y */\n      dup2\n        /* \"hw.sol\":571:572  x */\n      dup4\n        /* \"hw.sol\":571:576  x + y */\n      tag_50\n      swap2\n      swap1\n      tag_51\n      jump\t// in\n    tag_50:\n        /* \"hw.sol\":564:576  return x + y */\n      swap1\n      pop\n        /* \"hw.sol\":479:583  function addFunction(uint256 x, uint256 y) external pure returns (uint256) {... */\n      swap3\n      swap2\n      pop\n      pop\n      jump\t// out\n        /* \"hw.sol\":255:275  uint256 public u = 1 */\n    tag_38:\n      sload(0x02)\n      dup2\n      jump\t// out\n        /* \"hw.sol\":314:333  int256 public i = 1 */\n    tag_41:\n      sload(0x03)\n      dup2\n      jump\t// out\n        /* \"#utility.yul\":7:106   */\n    tag_52:\n        /* \"#utility.yul\":59:65   */\n      0x00\n        /* \"#utility.yul\":93:98   */\n      dup2\n        /* \"#utility.yul\":87:99   */\n      mload\n        /* \"#utility.yul\":77:99   */\n      swap1\n      pop\n        /* \"#utility.yul\":7:106   */\n      swap2\n      swap1\n      pop\n      jump\t// out\n        /* \"#utility.yul\":112:281   */\n    tag_53:\n        /* \"#utility.yul\":196:207   */\n      0x00\n        /* \"#utility.yul\":230:236   */\n      dup3\n        /* \"#utility.yul\":225:228   */\n      dup3\n        /* \"#utility.yul\":218:237   */\n      mstore\n        /* \"#utility.yul\":270:274   */\n      0x20\n        /* \"#utility.yul\":265:268   */\n      dup3\n        /* \"#utility.yul\":261:275   */\n      add\n        /* \"#utility.yul\":246:275   */\n      swap1\n      pop\n        /* \"#utility.yul\":112:281   */\n      swap3\n      swap2\n      pop\n      pop\n      jump\t// out\n        /* \"#utility.yul\":287:426   */\n    tag_54:\n        /* \"#utility.yul\":376:382   */\n      dup3\n        /* \"#utility.yul\":371:374   */\n      dup2\n        /* \"#utility.yul\":366:369   */\n      dup4\n        /* \"#utility.yul\":360:383   */\n      mcopy\n        /* \"#utility.yul\":417:418   */\n      0x00\n        /* \"#utility.yul\":408:414   */\n      dup4\n        /* \"#utility.yul\":403:406   */\n      dup4\n        /* \"#utility.yul\":399:415   */\n      add\n        /* \"#utility.yul\":392:419   */\n      mstore\n        /* \"#utility.yul\":287:426   */\n      pop\n      pop\n      pop\n      jump\t// out\n        /* \"#utility.yul\":432:534   */\n    tag_55:\n        /* \"#utility.yul\":473:479   */\n      0x00\n        /* \"#utility.yul\":524:526   */\n      0x1f\n        /* \"#utility.yul\":520:527   */\n      not\n        /* \"#utility.yul\":515:517   */\n      0x1f\n        /* \"#utility.yul\":508:513   */\n      dup4\n        /* \"#utility.yul\":504:518   */\n      add\n        /* \"#utility.yul\":500:528   */\n      and\n        /* \"#utility.yul\":490:528   */\n      swap1\n      pop\n        /* \"#utility.yul\":432:534   */\n      swap2\n      swap1\n      pop\n      jump\t// out\n        /* \"#utility.yul\":540:917   */\n    tag_56:\n        /* \"#utility.yul\":628:631   */\n      0x00\n        /* \"#utility.yul\":656:695   */\n      tag_79\n        /* \"#utility.yul\":689:694   */\n      dup3\n        /* \"#utility.yul\":656:695   */\n      tag_52\n      jump\t// in\n    tag_79:\n        /* \"#utility.yul\":711:782   */\n      tag_80\n        /* \"#utility.yul\":775:781   */\n      dup2\n        /* \"#utility.yul\":770:773   */\n      dup6\n        /* \"#utility.yul\":711:782   */\n      tag_53\n      jump\t// in\n    tag_80:\n        /* \"#utility.yul\":704:782   */\n      swap4\n      pop\n        /* \"#utility.yul\":791:856   */\n      tag_81\n        /* \"#utility.yul\":849:855   */\n      dup2\n        /* \"#utility.yul\":844:847   */\n      dup6\n        /* \"#utility.yul\":837:841   */\n      0x20\n        /* \"#utility.yul\":830:835   */\n      dup7\n        /* \"#utility.yul\":826:842   */\n      add\n        /* \"#utility.yul\":791:856   */\n      tag_54\n      jump\t// in\n    tag_81:\n        /* \"#utility.yul\":881:910   */\n      tag_82\n        /* \"#utility.yul\":903:909   */\n      dup2\n        /* \"#utility.yul\":881:910   */\n      tag_55\n      jump\t// in\n    tag_82:\n        /* \"#utility.yul\":876:879   */\n      dup5\n        /* \"#utility.yul\":872:911   */\n      add\n        /* \"#utility.yul\":865:911   */\n      swap2\n      pop\n        /* \"#utility.yul\":632:917   */\n      pop\n        /* \"#utility.yul\":540:917   */\n      swap3\n      swap2\n      pop\n      pop\n      jump\t// out\n        /* \"#utility.yul\":923:1236   */\n    tag_15:\n        /* \"#utility.yul\":1036:1040   */\n      0x00\n        /* \"#utility.yul\":1074:1076   */\n      0x20\n        /* \"#utility.yul\":1063:1072   */\n      dup3\n        /* \"#utility.yul\":1059:1077   */\n      add\n        /* \"#utility.yul\":1051:1077   */\n      swap1\n      pop\n        /* \"#utility.yul\":1123:1132   */\n      dup2\n        /* \"#utility.yul\":1117:1121   */\n      dup2\n        /* \"#utility.yul\":1113:1133   */\n      sub\n        /* \"#utility.yul\":1109:1110   */\n      0x00\n        /* \"#utility.yul\":1098:1107   */\n      dup4\n        /* \"#utility.yul\":1094:1111   */\n      add\n        /* \"#utility.yul\":1087:1134   */\n      mstore\n        /* \"#utility.yul\":1151:1229   */\n      tag_84\n        /* \"#utility.yul\":1224:1228   */\n      dup2\n        /* \"#utility.yul\":1215:1221   */\n      dup5\n        /* \"#utility.yul\":1151:1229   */\n      tag_56\n      jump\t// in\n    tag_84:\n        /* \"#utility.yul\":1143:1229   */\n      swap1\n      pop\n        /* \"#utility.yul\":923:1236   */\n      swap3\n      swap2\n      pop\n      pop\n      jump\t// out\n        /* \"#utility.yul\":1242:1368   */\n    tag_57:\n        /* \"#utility.yul\":1279:1286   */\n      0x00\n        /* \"#utility.yul\":1319:1361   */\n      0xffffffffffffffffffffffffffffffffffffffff\n        /* \"#utility.yul\":1312:1317   */\n      dup3\n        /* \"#utility.yul\":1308:1362   */\n      and\n        /* \"#utility.yul\":1297:1362   */\n      swap1\n      pop\n        /* \"#utility.yul\":1242:1368   */\n      swap2\n      swap1\n      pop\n      jump\t// out\n        /* \"#utility.yul\":1374:1470   */\n    tag_58:\n        /* \"#utility.yul\":1411:1418   */\n      0x00\n        /* \"#utility.yul\":1440:1464   */\n      tag_87\n        /* \"#utility.yul\":1458:1463   */\n      dup3\n        /* \"#utility.yul\":1440:1464   */\n      tag_57\n      jump\t// in\n    tag_87:\n        /* \"#utility.yul\":1429:1464   */\n      swap1\n      pop\n        /* \"#utility.yul\":1374:1470   */\n      swap2\n      swap1\n      pop\n      jump\t// out\n        /* \"#utility.yul\":1476:1594   */\n    tag_59:\n        /* \"#utility.yul\":1563:1587   */\n      tag_89\n        /* \"#utility.yul\":1581:1586   */\n      dup2\n        /* \"#utility.yul\":1563:1587   */\n      tag_58\n      jump\t// in\n    tag_89:\n        /* \"#utility.yul\":1558:1561   */\n      dup3\n        /* \"#utility.yul\":1551:1588   */\n      mstore\n        /* \"#utility.yul\":1476:1594   */\n      pop\n      pop\n      jump\t// out\n        /* \"#utility.yul\":1600:1822   */\n    tag_19:\n        /* \"#utility.yul\":1693:1697   */\n      0x00\n        /* \"#utility.yul\":1731:1733   */\n      0x20\n        /* \"#utility.yul\":1720:1729   */\n      dup3\n        /* \"#utility.yul\":1716:1734   */\n      add\n        /* \"#utility.yul\":1708:1734   */\n      swap1\n      pop\n        /* \"#utility.yul\":1744:1815   */\n      tag_91\n        /* \"#utility.yul\":1812:1813   */\n      0x00\n        /* \"#utility.yul\":1801:1810   */\n      dup4\n        /* \"#utility.yul\":1797:1814   */\n      add\n        /* \"#utility.yul\":1788:1794   */\n      dup5\n        /* \"#utility.yul\":1744:1815   */\n      tag_59\n      jump\t// in\n    tag_91:\n        /* \"#utility.yul\":1600:1822   */\n      swap3\n      swap2\n      pop\n      pop\n      jump\t// out\n        /* \"#utility.yul\":1828:1904   */\n    tag_60:\n        /* \"#utility.yul\":1864:1871   */\n      0x00\n        /* \"#utility.yul\":1893:1898   */\n      dup2\n        /* \"#utility.yul\":1882:1898   */\n      swap1\n      pop\n        /* \"#utility.yul\":1828:1904   */\n      swap2\n      swap1\n      pop\n      jump\t// out\n        /* \"#utility.yul\":1910:2025   */\n    tag_61:\n        /* \"#utility.yul\":1995:2018   */\n      tag_94\n        /* \"#utility.yul\":2012:2017   */\n      dup2\n        /* \"#utility.yul\":1995:2018   */\n      tag_60\n      jump\t// in\n    tag_94:\n        /* \"#utility.yul\":1990:1993   */\n      dup3\n        /* \"#utility.yul\":1983:2019   */\n      mstore\n        /* \"#utility.yul\":1910:2025   */\n      pop\n      pop\n      jump\t// out\n        /* \"#utility.yul\":2031:2249   */\n    tag_23:\n        /* \"#utility.yul\":2122:2126   */\n      0x00\n        /* \"#utility.yul\":2160:2162   */\n      0x20\n        /* \"#utility.yul\":2149:2158   */\n      dup3\n        /* \"#utility.yul\":2145:2163   */\n      add\n        /* \"#utility.yul\":2137:2163   */\n      swap1\n      pop\n        /* \"#utility.yul\":2173:2242   */\n      tag_96\n        /* \"#utility.yul\":2239:2240   */\n      0x00\n        /* \"#utility.yul\":2228:2237   */\n      dup4\n        /* \"#utility.yul\":2224:2241   */\n      add\n        /* \"#utility.yul\":2215:2221   */\n      dup5\n        /* \"#utility.yul\":2173:2242   */\n      tag_61\n      jump\t// in\n    tag_96:\n        /* \"#utility.yul\":2031:2249   */\n      swap3\n      swap2\n      pop\n      pop\n      jump\t// out\n        /* \"#utility.yul\":2255:2345   */\n    tag_62:\n        /* \"#utility.yul\":2289:2296   */\n      0x00\n        /* \"#utility.yul\":2332:2337   */\n      dup2\n        /* \"#utility.yul\":2325:2338   */\n      iszero\n        /* \"#utility.yul\":2318:2339   */\n      iszero\n        /* \"#utility.yul\":2307:2339   */\n      swap1\n      pop\n        /* \"#utility.yul\":2255:2345   */\n      swap2\n      swap1\n      pop\n      jump\t// out\n        /* \"#utility.yul\":2351:2460   */\n    tag_63:\n        /* \"#utility.yul\":2432:2453   */\n      tag_99\n        /* \"#utility.yul\":2447:2452   */\n      dup2\n        /* \"#utility.yul\":2432:2453   */\n      tag_62\n      jump\t// in\n    tag_99:\n        /* \"#utility.yul\":2427:2430   */\n      dup3\n        /* \"#utility.yul\":2420:2454   */\n      mstore\n        /* \"#utility.yul\":2351:2460   */\n      pop\n      pop\n      jump\t// out\n        /* \"#utility.yul\":2466:2676   */\n    tag_27:\n        /* \"#utility.yul\":2553:2557   */\n      0x00\n        /* \"#utility.yul\":2591:2593   */\n      0x20\n        /* \"#utility.yul\":2580:2589   */\n      dup3\n        /* \"#utility.yul\":2576:2594   */\n      add\n        /* \"#utility.yul\":2568:2594   */\n      swap1\n      pop\n        /* \"#utility.yul\":2604:2669   */\n      tag_101\n        /* \"#utility.yul\":2666:2667   */\n      0x00\n        /* \"#utility.yul\":2655:2664   */\n      dup4\n        /* \"#utility.yul\":2651:2668   */\n      add\n        /* \"#utility.yul\":2642:2648   */\n      dup5\n        /* \"#utility.yul\":2604:2669   */\n      tag_63\n      jump\t// in\n    tag_101:\n        /* \"#utility.yul\":2466:2676   */\n      swap3\n      swap2\n      pop\n      pop\n      jump\t// out\n        /* \"#utility.yul\":2763:2880   */\n    tag_65:\n        /* \"#utility.yul\":2872:2873   */\n      0x00\n        /* \"#utility.yul\":2869:2870   */\n      0x00\n        /* \"#utility.yul\":2862:2874   */\n      revert\n        /* \"#utility.yul\":3009:3086   */\n    tag_67:\n        /* \"#utility.yul\":3046:3053   */\n      0x00\n        /* \"#utility.yul\":3075:3080   */\n      dup2\n        /* \"#utility.yul\":3064:3080   */\n      swap1\n      pop\n        /* \"#utility.yul\":3009:3086   */\n      swap2\n      swap1\n      pop\n      jump\t// out\n        /* \"#utility.yul\":3092:3214   */\n    tag_68:\n        /* \"#utility.yul\":3165:3189   */\n      tag_107\n        /* \"#utility.yul\":3183:3188   */\n      dup2\n        /* \"#utility.yul\":3165:3189   */\n      tag_67\n      jump\t// in\n    tag_107:\n        /* \"#utility.yul\":3158:3163   */\n      dup2\n        /* \"#utility.yul\":3155:3190   */\n      eq\n        /* \"#utility.yul\":3145:3208   */\n      tag_108\n      jumpi\n        /* \"#utility.yul\":3204:3205   */\n      0x00\n        /* \"#utility.yul\":3201:3202   */\n      0x00\n        /* \"#utility.yul\":3194:3206   */\n      revert\n        /* \"#utility.yul\":3145:3208   */\n    tag_108:\n        /* \"#utility.yul\":3092:3214   */\n      pop\n      jump\t// out\n        /* \"#utility.yul\":3220:3359   */\n    tag_69:\n        /* \"#utility.yul\":3266:3271   */\n      0x00\n        /* \"#utility.yul\":3304:3310   */\n      dup2\n        /* \"#utility.yul\":3291:3311   */\n      calldataload\n        /* \"#utility.yul\":3282:3311   */\n      swap1\n      pop\n        /* \"#utility.yul\":3320:3353   */\n      tag_110\n        /* \"#utility.yul\":3347:3352   */\n      dup2\n        /* \"#utility.yul\":3320:3353   */\n      tag_68\n      jump\t// in\n    tag_110:\n        /* \"#utility.yul\":3220:3359   */\n      swap3\n      swap2\n      pop\n      pop\n      jump\t// out\n        /* \"#utility.yul\":3365:3839   */\n    tag_33:\n        /* \"#utility.yul\":3433:3439   */\n      0x00\n        /* \"#utility.yul\":3441:3447   */\n      0x00\n        /* \"#utility.yul\":3490:3492   */\n      0x40\n        /* \"#utility.yul\":3478:3487   */\n      dup4\n        /* \"#utility.yul\":3469:3476   */\n      dup6\n        /* \"#utility.yul\":3465:3488   */\n      sub\n        /* \"#utility.yul\":3461:3493   */\n      slt\n        /* \"#utility.yul\":3458:3577   */\n      iszero\n      tag_112\n      jumpi\n        /* \"#utility.yul\":3496:3575   */\n      tag_113\n      tag_65\n      jump\t// in\n    tag_113:\n        /* \"#utility.yul\":3458:3577   */\n    tag_112:\n        /* \"#utility.yul\":3616:3617   */\n      0x00\n        /* \"#utility.yul\":3641:3694   */\n      tag_114\n        /* \"#utility.yul\":3686:3693   */\n      dup6\n        /* \"#utility.yul\":3677:3683   */\n      dup3\n        /* \"#utility.yul\":3666:3675   */\n      dup7\n        /* \"#utility.yul\":3662:3684   */\n      add\n        /* \"#utility.yul\":3641:3694   */\n      tag_69\n      jump\t// in\n    tag_114:\n        /* \"#utility.yul\":3631:3694   */\n      swap3\n      pop\n        /* \"#utility.yul\":3587:3704   */\n      pop\n        /* \"#utility.yul\":3743:3745   */\n      0x20\n        /* \"#utility.yul\":3769:3822   */\n      tag_115\n        /* \"#utility.yul\":3814:3821   */\n      dup6\n        /* \"#utility.yul\":3805:3811   */\n      dup3\n        /* \"#utility.yul\":3794:3803   */\n      dup7\n        /* \"#utility.yul\":3790:3812   */\n      add\n        /* \"#utility.yul\":3769:3822   */\n      tag_69\n      jump\t// in\n    tag_115:\n        /* \"#utility.yul\":3759:3822   */\n      swap2\n      pop\n        /* \"#utility.yul\":3714:3832   */\n      pop\n        /* \"#utility.yul\":3365:3839   */\n      swap3\n      pop\n      swap3\n      swap1\n      pop\n      jump\t// out\n        /* \"#utility.yul\":3845:3963   */\n    tag_70:\n        /* \"#utility.yul\":3932:3956   */\n      tag_117\n        /* \"#utility.yul\":3950:3955   */\n      dup2\n        /* \"#utility.yul\":3932:3956   */\n      tag_67\n      jump\t// in\n    tag_117:\n        /* \"#utility.yul\":3927:3930   */\n      dup3\n        /* \"#utility.yul\":3920:3957   */\n      mstore\n        /* \"#utility.yul\":3845:3963   */\n      pop\n      pop\n      jump\t// out\n        /* \"#utility.yul\":3969:4191   */\n    tag_36:\n        /* \"#utility.yul\":4062:4066   */\n      0x00\n        /* \"#utility.yul\":4100:4102   */\n      0x20\n        /* \"#utility.yul\":4089:4098   */\n      dup3\n        /* \"#utility.yul\":4085:4103   */\n      add\n        /* \"#utility.yul\":4077:4103   */\n      swap1\n      pop\n        /* \"#utility.yul\":4113:4184   */\n      tag_119\n        /* \"#utility.yul\":4181:4182   */\n      0x00\n        /* \"#utility.yul\":4170:4179   */\n      dup4\n        /* \"#utility.yul\":4166:4183   */\n      add\n        /* \"#utility.yul\":4157:4163   */\n      dup5\n        /* \"#utility.yul\":4113:4184   */\n      tag_70\n      jump\t// in\n    tag_119:\n        /* \"#utility.yul\":3969:4191   */\n      swap3\n      swap2\n      pop\n      pop\n      jump\t// out\n        /* \"#utility.yul\":4197:4377   */\n    tag_71:\n        /* \"#utility.yul\":4245:4322   */\n      0x4e487b7100000000000000000000000000000000000000000000000000000000\n        /* \"#utility.yul\":4242:4243   */\n      0x00\n        /* \"#utility.yul\":4235:4323   */\n      mstore\n        /* \"#utility.yul\":4342:4346   */\n      0x22\n        /* \"#utility.yul\":4339:4340   */\n      0x04\n        /* \"#utility.yul\":4332:4347   */\n      mstore\n        /* \"#utility.yul\":4366:4370   */\n      0x24\n        /* \"#utility.yul\":4363:4364   */\n      0x00\n        /* \"#utility.yul\":4356:4371   */\n      revert\n        /* \"#utility.yul\":4383:4703   */\n    tag_44:\n        /* \"#utility.yul\":4427:4433   */\n      0x00\n        /* \"#utility.yul\":4464:4465   */\n      0x02\n        /* \"#utility.yul\":4458:4462   */\n      dup3\n        /* \"#utility.yul\":4454:4466   */\n      div\n        /* \"#utility.yul\":4444:4466   */\n      swap1\n      pop\n        /* \"#utility.yul\":4511:4512   */\n      0x01\n        /* \"#utility.yul\":4505:4509   */\n      dup3\n        /* \"#utility.yul\":4501:4513   */\n      and\n        /* \"#utility.yul\":4532:4550   */\n      dup1\n        /* \"#utility.yul\":4522:4603   */\n      tag_122\n      jumpi\n        /* \"#utility.yul\":4588:4592   */\n      0x7f\n        /* \"#utility.yul\":4580:4586   */\n      dup3\n        /* \"#utility.yul\":4576:4593   */\n      and\n        /* \"#utility.yul\":4566:4593   */\n      swap2\n      pop\n        /* \"#utility.yul\":4522:4603   */\n    tag_122:\n        /* \"#utility.yul\":4650:4652   */\n      0x20\n        /* \"#utility.yul\":4642:4648   */\n      dup3\n        /* \"#utility.yul\":4639:4653   */\n      lt\n        /* \"#utility.yul\":4619:4637   */\n      dup2\n        /* \"#utility.yul\":4616:4654   */\n      sub\n        /* \"#utility.yul\":4613:4697   */\n      tag_123\n      jumpi\n        /* \"#utility.yul\":4669:4687   */\n      tag_124\n      tag_71\n      jump\t// in\n    tag_124:\n        /* \"#utility.yul\":4613:4697   */\n    tag_123:\n        /* \"#utility.yul\":4434:4703   */\n      pop\n        /* \"#utility.yul\":4383:4703   */\n      swap2\n      swap1\n      pop\n      jump\t// out\n        /* \"#utility.yul\":4709:4889   */\n    tag_72:\n        /* \"#utility.yul\":4757:4834   */\n      0x4e487b7100000000000000000000000000000000000000000000000000000000\n        /* \"#utility.yul\":4754:4755   */\n      0x00\n        /* \"#utility.yul\":4747:4835   */\n      mstore\n        /* \"#utility.yul\":4854:4858   */\n      0x11\n        /* \"#utility.yul\":4851:4852   */\n      0x04\n        /* \"#utility.yul\":4844:4859   */\n      mstore\n        /* \"#utility.yul\":4878:4882   */\n      0x24\n        /* \"#utility.yul\":4875:4876   */\n      0x00\n        /* \"#utility.yul\":4868:4883   */\n      revert\n        /* \"#utility.yul\":4895:5086   */\n    tag_51:\n        /* \"#utility.yul\":4935:4938   */\n      0x00\n        /* \"#utility.yul\":4954:4974   */\n      tag_127\n        /* \"#utility.yul\":4972:4973   */\n      dup3\n        /* \"#utility.yul\":4954:4974   */\n      tag_67\n      jump\t// in\n    tag_127:\n        /* \"#utility.yul\":4949:4974   */\n      swap2\n      pop\n        /* \"#utility.yul\":4988:5008   */\n      tag_128\n        /* \"#utility.yul\":5006:5007   */\n      dup4\n        /* \"#utility.yul\":4988:5008   */\n      tag_67\n      jump\t// in\n    tag_128:\n        /* \"#utility.yul\":4983:5008   */\n      swap3\n      pop\n        /* \"#utility.yul\":5031:5032   */\n      dup3\n        /* \"#utility.yul\":5028:5029   */\n      dup3\n        /* \"#utility.yul\":5024:5033   */\n      add\n        /* \"#utility.yul\":5017:5033   */\n      swap1\n      pop\n        /* \"#utility.yul\":5052:5055   */\n      dup1\n        /* \"#utility.yul\":5049:5050   */\n      dup3\n        /* \"#utility.yul\":5046:5056   */\n      gt\n        /* \"#utility.yul\":5043:5079   */\n      iszero\n      tag_129\n      jumpi\n        /* \"#utility.yul\":5059:5077   */\n      tag_130\n      tag_72\n      jump\t// in\n    tag_130:\n        /* \"#utility.yul\":5043:5079   */\n    tag_129:\n        /* \"#utility.yul\":4895:5086   */\n      swap3\n      swap2\n      pop\n      pop\n      jump\t// out\n\n    auxdata: 0xa2646970667358221220598ef68d1f6dbacf9362757cde0e90020b9be9ff853e9ae6c3d29a362035e81864736f6c634300081e0033\n}\n",
				"bytecode": {
					"linkReferences": {},
					"object": "60806040526040518060400160405280600b81526020017f48656c6c6f20776f726c640000000000000000000000000000000000000000008152505f9081610047919061036b565b5060018060146101000a81548160ff021916908315150217905550600160025560016003557f80000000000000000000000000000000000000000000000000000000000000006004557f7fffffffffffffffffffffffffffffffffffffffffffffffffffffffffffffff6005553480156100bf575f5ffd5b506040516109f83803806109f883398181016040528101906100e19190610468565b806002819055503360015f6101000a81548173ffffffffffffffffffffffffffffffffffffffff021916908373ffffffffffffffffffffffffffffffffffffffff16021790555050610493565b5f81519050919050565b7f4e487b71000000000000000000000000000000000000000000000000000000005f52604160045260245ffd5b7f4e487b71000000000000000000000000000000000000000000000000000000005f52602260045260245ffd5b5f60028204905060018216806101a957607f821691505b6020821081036101bc576101bb610165565b5b50919050565b5f819050815f5260205f209050919050565b5f6020601f8301049050919050565b5f82821b905092915050565b5f6008830261021e7fffffffffffffffffffffffffffffffffffffffffffffffffffffffffffffffff826101e3565b61022886836101e3565b95508019841693508086168417925050509392505050565b5f819050919050565b5f819050919050565b5f61026c61026761026284610240565b610249565b610240565b9050919050565b5f819050919050565b61028583610252565b61029961029182610273565b8484546101ef565b825550505050565b5f5f905090565b6102b06102a1565b6102bb81848461027c565b505050565b5b818110156102de576102d35f826102a8565b6001810190506102c1565b5050565b601f821115610323576102f4816101c2565b6102fd846101d4565b8101602085101561030c578190505b610320610318856101d4565b8301826102c0565b50505b505050565b5f82821c905092915050565b5f6103435f1984600802610328565b1980831691505092915050565b5f61035b8383610334565b9150826002028217905092915050565b6103748261012e565b67ffffffffffffffff81111561038d5761038c610138565b5b6103978254610192565b6103a28282856102e2565b5f60209050601f8311600181146103d3575f84156103c1578287015190505b6103cb8582610350565b865550610432565b601f1984166103e1866101c2565b5f5b82811015610408578489015182556001820191506020850194506020810190506103e3565b868310156104255784890151610421601f891682610334565b8355505b6001600288020188555050505b505050505050565b5f5ffd5b61044781610240565b8114610451575f5ffd5b50565b5f815190506104628161043e565b92915050565b5f6020828403121561047d5761047c61043a565b5b5f61048a84828501610454565b91505092915050565b610558806104a05f395ff3fe608060405234801561000f575f5ffd5b5060043610610086575f3560e01c80637e4e14cc116100595780637e4e14cc14610102578063b590792814610120578063c6a898c514610150578063e5aa3d581461016e57610086565b80630f0cb9661461008a5780631ea76c9d146100a857806321e17a91146100c65780634df7e3d0146100e4575b5f5ffd5b61009261018c565b60405161009f91906102ec565b60405180910390f35b6100b0610217565b6040516100bd919061034b565b60405180910390f35b6100ce61023c565b6040516100db919061037c565b60405180910390f35b6100ec610242565b6040516100f991906103af565b60405180910390f35b61010a610255565b604051610117919061037c565b60405180910390f35b61013a600480360381019061013591906103ff565b61025b565b604051610147919061044c565b60405180910390f35b610158610270565b604051610165919061044c565b60405180910390f35b610176610276565b604051610183919061037c565b60405180910390f35b5f805461019890610492565b80601f01602080910402602001604051908101604052809291908181526020018280546101c490610492565b801561020f5780601f106101e65761010080835404028352916020019161020f565b820191905f5260205f20905b8154815290600101906020018083116101f257829003601f168201915b505050505081565b60015f9054906101000a900473ffffffffffffffffffffffffffffffffffffffff1681565b60055481565b600160149054906101000a900460ff1681565b60045481565b5f818361026891906104ef565b905092915050565b60025481565b60035481565b5f81519050919050565b5f82825260208201905092915050565b8281835e5f83830152505050565b5f601f19601f8301169050919050565b5f6102be8261027c565b6102c88185610286565b93506102d8818560208601610296565b6102e1816102a4565b840191505092915050565b5f6020820190508181035f83015261030481846102b4565b905092915050565b5f73ffffffffffffffffffffffffffffffffffffffff82169050919050565b5f6103358261030c565b9050919050565b6103458161032b565b82525050565b5f60208201905061035e5f83018461033c565b92915050565b5f819050919050565b61037681610364565b82525050565b5f60208201905061038f5f83018461036d565b92915050565b5f8115159050919050565b6103a981610395565b82525050565b5f6020820190506103c25f8301846103a0565b92915050565b5f5ffd5b5f819050919050565b6103de816103cc565b81146103e8575f5ffd5b50565b5f813590506103f9816103d5565b92915050565b5f5f60408385031215610415576104146103c8565b5b5f610422858286016103eb565b9250506020610433858286016103eb565b9150509250929050565b610446816103cc565b82525050565b5f60208201905061045f5f83018461043d565b92915050565b7f4e487b71000000000000000000000000000000000000000000000000000000005f52602260045260245ffd5b5f60028204905060018216806104a957607f821691505b6020821081036104bc576104bb610465565b5b50919050565b7f4e487b71000000000000000000000000000000000000000000000000000000005f52601160045260245ffd5b5f6104f9826103cc565b9150610504836103cc565b925082820190508082111561051c5761051b6104c2565b5b9291505056fea2646970667358221220598ef68d1f6dbacf9362757cde0e90020b9be9ff853e9ae6c3d29a362035e81864736f6c634300081e0033",
					"opcodes": "PUSH1 0x80 PUSH1 0x40 MSTORE PUSH1 0x40 MLOAD DUP1 PUSH1 0x40 ADD PUSH1 0x40 MSTORE DUP1 PUSH1 0xB DUP2 MSTORE PUSH1 0x20 ADD PUSH32 0x48656C6C6F20776F726C64000000000000000000000000000000000000000000 DUP2 MSTORE POP PUSH0 SWAP1 DUP2 PUSH2 0x47 SWAP2 SWAP1 PUSH2 0x36B JUMP JUMPDEST POP PUSH1 0x1 DUP1 PUSH1 0x14 PUSH2 0x100 EXP DUP2 SLOAD DUP2 PUSH1 0xFF MUL NOT AND SWAP1 DUP4 ISZERO ISZERO MUL OR SWAP1 SSTORE POP PUSH1 0x1 PUSH1 0x2 SSTORE PUSH1 0x1 PUSH1 0x3 SSTORE PUSH32 0x8000000000000000000000000000000000000000000000000000000000000000 PUSH1 0x4 SSTORE PUSH32 0x7FFFFFFFFFFFFFFFFFFFFFFFFFFFFFFFFFFFFFFFFFFFFFFFFFFFFFFFFFFFFFFF PUSH1 0x5 SSTORE CALLVALUE DUP1 ISZERO PUSH2 0xBF JUMPI PUSH0 PUSH0 REVERT JUMPDEST POP PUSH1 0x40 MLOAD PUSH2 0x9F8 CODESIZE SUB DUP1 PUSH2 0x9F8 DUP4 CODECOPY DUP2 DUP2 ADD PUSH1 0x40 MSTORE DUP2 ADD SWAP1 PUSH2 0xE1 SWAP2 SWAP1 PUSH2 0x468 JUMP JUMPDEST DUP1 PUSH1 0x2 DUP2 SWAP1 SSTORE POP CALLER PUSH1 0x1 PUSH0 PUSH2 0x100 EXP DUP2 SLOAD DUP2 PUSH20 0xFFFFFFFFFFFFFFFFFFFFFFFFFFFFFFFFFFFFFFFF MUL NOT AND SWAP1 DUP4 PUSH20 0xFFFFFFFFFFFFFFFFFFFFFFFFFFFFFFFFFFFFFFFF AND MUL OR SWAP1 SSTORE POP POP PUSH2 0x493 JUMP JUMPDEST PUSH0 DUP2 MLOAD SWAP1 POP SWAP2 SWAP1 POP JUMP JUMPDEST PUSH32 0x4E487B7100000000000000000000000000000000000000000000000000000000 PUSH0 MSTORE PUSH1 0x41 PUSH1 0x4 MSTORE PUSH1 0x24 PUSH0 REVERT JUMPDEST PUSH32 0x4E487B7100000000000000000000000000000000000000000000000000000000 PUSH0 MSTORE PUSH1 0x22 PUSH1 0x4 MSTORE PUSH1 0x24 PUSH0 REVERT JUMPDEST PUSH0 PUSH1 0x2 DUP3 DIV SWAP1 POP PUSH1 0x1 DUP3 AND DUP1 PUSH2 0x1A9 JUMPI PUSH1 0x7F DUP3 AND SWAP2 POP JUMPDEST PUSH1 0x20 DUP3 LT DUP2 SUB PUSH2 0x1BC JUMPI PUSH2 0x1BB PUSH2 0x165 JUMP JUMPDEST JUMPDEST POP SWAP2 SWAP1 POP JUMP JUMPDEST PUSH0 DUP2 SWAP1 POP DUP2 PUSH0 MSTORE PUSH1 0x20 PUSH0 KECCAK256 SWAP1 POP SWAP2 SWAP1 POP JUMP JUMPDEST PUSH0 PUSH1 0x20 PUSH1 0x1F DUP4 ADD DIV SWAP1 POP SWAP2 SWAP1 POP JUMP JUMPDEST PUSH0 DUP3 DUP3 SHL SWAP1 POP SWAP3 SWAP2 POP POP JUMP JUMPDEST PUSH0 PUSH1 0x8 DUP4 MUL PUSH2 0x21E PUSH32 0xFFFFFFFFFFFFFFFFFFFFFFFFFFFFFFFFFFFFFFFFFFFFFFFFFFFFFFFFFFFFFFFF DUP3 PUSH2 0x1E3 JUMP JUMPDEST PUSH2 0x228 DUP7 DUP4 PUSH2 0x1E3 JUMP JUMPDEST SWAP6 POP DUP1 NOT DUP5 AND SWAP4 POP DUP1 DUP7 AND DUP5 OR SWAP3 POP POP POP SWAP4 SWAP3 POP POP POP JUMP JUMPDEST PUSH0 DUP2 SWAP1 POP SWAP2 SWAP1 POP JUMP JUMPDEST PUSH0 DUP2 SWAP1 POP SWAP2 SWAP1 POP JUMP JUMPDEST PUSH0 PUSH2 0x26C PUSH2 0x267 PUSH2 0x262 DUP5 PUSH2 0x240 JUMP JUMPDEST PUSH2 0x249 JUMP JUMPDEST PUSH2 0x240 JUMP JUMPDEST SWAP1 POP SWAP2 SWAP1 POP JUMP JUMPDEST PUSH0 DUP2 SWAP1 POP SWAP2 SWAP1 POP JUMP JUMPDEST PUSH2 0x285 DUP4 PUSH2 0x252 JUMP JUMPDEST PUSH2 0x299 PUSH2 0x291 DUP3 PUSH2 0x273 JUMP JUMPDEST DUP5 DUP5 SLOAD PUSH2 0x1EF JUMP JUMPDEST DUP3 SSTORE POP POP POP POP JUMP JUMPDEST PUSH0 PUSH0 SWAP1 POP SWAP1 JUMP JUMPDEST PUSH2 0x2B0 PUSH2 0x2A1 JUMP JUMPDEST PUSH2 0x2BB DUP2 DUP5 DUP5 PUSH2 0x27C JUMP JUMPDEST POP POP POP JUMP JUMPDEST JUMPDEST DUP2 DUP2 LT ISZERO PUSH2 0x2DE JUMPI PUSH2 0x2D3 PUSH0 DUP3 PUSH2 0x2A8 JUMP JUMPDEST PUSH1 0x1 DUP2 ADD SWAP1 POP PUSH2 0x2C1 JUMP JUMPDEST POP POP JUMP JUMPDEST PUSH1 0x1F DUP3 GT ISZERO PUSH2 0x323 JUMPI PUSH2 0x2F4 DUP2 PUSH2 0x1C2 JUMP JUMPDEST PUSH2 0x2FD DUP5 PUSH2 0x1D4 JUMP JUMPDEST DUP2 ADD PUSH1 0x20 DUP6 LT ISZERO PUSH2 0x30C JUMPI DUP2 SWAP1 POP JUMPDEST PUSH2 0x320 PUSH2 0x318 DUP6 PUSH2 0x1D4 JUMP JUMPDEST DUP4 ADD DUP3 PUSH2 0x2C0 JUMP JUMPDEST POP POP JUMPDEST POP POP POP JUMP JUMPDEST PUSH0 DUP3 DUP3 SHR SWAP1 POP SWAP3 SWAP2 POP POP JUMP JUMPDEST PUSH0 PUSH2 0x343 PUSH0 NOT DUP5 PUSH1 0x8 MUL PUSH2 0x328 JUMP JUMPDEST NOT DUP1 DUP4 AND SWAP2 POP POP SWAP3 SWAP2 POP POP JUMP JUMPDEST PUSH0 PUSH2 0x35B DUP4 DUP4 PUSH2 0x334 JUMP JUMPDEST SWAP2 POP DUP3 PUSH1 0x2 MUL DUP3 OR SWAP1 POP SWAP3 SWAP2 POP POP JUMP JUMPDEST PUSH2 0x374 DUP3 PUSH2 0x12E JUMP JUMPDEST PUSH8 0xFFFFFFFFFFFFFFFF DUP2 GT ISZERO PUSH2 0x38D JUMPI PUSH2 0x38C PUSH2 0x138 JUMP JUMPDEST JUMPDEST PUSH2 0x397 DUP3 SLOAD PUSH2 0x192 JUMP JUMPDEST PUSH2 0x3A2 DUP3 DUP3 DUP6 PUSH2 0x2E2 JUMP JUMPDEST PUSH0 PUSH1 0x20 SWAP1 POP PUSH1 0x1F DUP4 GT PUSH1 0x1 DUP2 EQ PUSH2 0x3D3 JUMPI PUSH0 DUP5 ISZERO PUSH2 0x3C1 JUMPI DUP3 DUP8 ADD MLOAD SWAP1 POP JUMPDEST PUSH2 0x3CB DUP6 DUP3 PUSH2 0x350 JUMP JUMPDEST DUP7 SSTORE POP PUSH2 0x432 JUMP JUMPDEST PUSH1 0x1F NOT DUP5 AND PUSH2 0x3E1 DUP7 PUSH2 0x1C2 JUMP JUMPDEST PUSH0 JUMPDEST DUP3 DUP2 LT ISZERO PUSH2 0x408 JUMPI DUP5 DUP10 ADD MLOAD DUP3 SSTORE PUSH1 0x1 DUP3 ADD SWAP2 POP PUSH1 0x20 DUP6 ADD SWAP5 POP PUSH1 0x20 DUP2 ADD SWAP1 POP PUSH2 0x3E3 JUMP JUMPDEST DUP7 DUP4 LT ISZERO PUSH2 0x425 JUMPI DUP5 DUP10 ADD MLOAD PUSH2 0x421 PUSH1 0x1F DUP10 AND DUP3 PUSH2 0x334 JUMP JUMPDEST DUP4 SSTORE POP JUMPDEST PUSH1 0x1 PUSH1 0x2 DUP9 MUL ADD DUP9 SSTORE POP POP POP JUMPDEST POP POP POP POP POP POP JUMP JUMPDEST PUSH0 PUSH0 REVERT JUMPDEST PUSH2 0x447 DUP2 PUSH2 0x240 JUMP JUMPDEST DUP2 EQ PUSH2 0x451 JUMPI PUSH0 PUSH0 REVERT JUMPDEST POP JUMP JUMPDEST PUSH0 DUP2 MLOAD SWAP1 POP PUSH2 0x462 DUP2 PUSH2 0x43E JUMP JUMPDEST SWAP3 SWAP2 POP POP JUMP JUMPDEST PUSH0 PUSH1 0x20 DUP3 DUP5 SUB SLT ISZERO PUSH2 0x47D JUMPI PUSH2 0x47C PUSH2 0x43A JUMP JUMPDEST JUMPDEST PUSH0 PUSH2 0x48A DUP5 DUP3 DUP6 ADD PUSH2 0x454 JUMP JUMPDEST SWAP2 POP POP SWAP3 SWAP2 POP POP JUMP JUMPDEST PUSH2 0x558 DUP1 PUSH2 0x4A0 PUSH0 CODECOPY PUSH0 RETURN INVALID PUSH1 0x80 PUSH1 0x40 MSTORE CALLVALUE DUP1 ISZERO PUSH2 0xF JUMPI PUSH0 PUSH0 REVERT JUMPDEST POP PUSH1 0x4 CALLDATASIZE LT PUSH2 0x86 JUMPI PUSH0 CALLDATALOAD PUSH1 0xE0 SHR DUP1 PUSH4 0x7E4E14CC GT PUSH2 0x59 JUMPI DUP1 PUSH4 0x7E4E14CC EQ PUSH2 0x102 JUMPI DUP1 PUSH4 0xB5907928 EQ PUSH2 0x120 JUMPI DUP1 PUSH4 0xC6A898C5 EQ PUSH2 0x150 JUMPI DUP1 PUSH4 0xE5AA3D58 EQ PUSH2 0x16E JUMPI PUSH2 0x86 JUMP JUMPDEST DUP1 PUSH4 0xF0CB966 EQ PUSH2 0x8A JUMPI DUP1 PUSH4 0x1EA76C9D EQ PUSH2 0xA8 JUMPI DUP1 PUSH4 0x21E17A91 EQ PUSH2 0xC6 JUMPI DUP1 PUSH4 0x4DF7E3D0 EQ PUSH2 0xE4 JUMPI JUMPDEST PUSH0 PUSH0 REVERT JUMPDEST PUSH2 0x92 PUSH2 0x18C JUMP JUMPDEST PUSH1 0x40 MLOAD PUSH2 0x9F SWAP2 SWAP1 PUSH2 0x2EC JUMP JUMPDEST PUSH1 0x40 MLOAD DUP1 SWAP2 SUB SWAP1 RETURN JUMPDEST PUSH2 0xB0 PUSH2 0x217 JUMP JUMPDEST PUSH1 0x40 MLOAD PUSH2 0xBD SWAP2 SWAP1 PUSH2 0x34B JUMP JUMPDEST PUSH1 0x40 MLOAD DUP1 SWAP2 SUB SWAP1 RETURN JUMPDEST PUSH2 0xCE PUSH2 0x23C JUMP JUMPDEST PUSH1 0x40 MLOAD PUSH2 0xDB SWAP2 SWAP1 PUSH2 0x37C JUMP JUMPDEST PUSH1 0x40 MLOAD DUP1 SWAP2 SUB SWAP1 RETURN JUMPDEST PUSH2 0xEC PUSH2 0x242 JUMP JUMPDEST PUSH1 0x40 MLOAD PUSH2 0xF9 SWAP2 SWAP1 PUSH2 0x3AF JUMP JUMPDEST PUSH1 0x40 MLOAD DUP1 SWAP2 SUB SWAP1 RETURN JUMPDEST PUSH2 0x10A PUSH2 0x255 JUMP JUMPDEST PUSH1 0x40 MLOAD PUSH2 0x117 SWAP2 SWAP1 PUSH2 0x37C JUMP JUMPDEST PUSH1 0x40 MLOAD DUP1 SWAP2 SUB SWAP1 RETURN JUMPDEST PUSH2 0x13A PUSH1 0x4 DUP1 CALLDATASIZE SUB DUP2 ADD SWAP1 PUSH2 0x135 SWAP2 SWAP1 PUSH2 0x3FF JUMP JUMPDEST PUSH2 0x25B JUMP JUMPDEST PUSH1 0x40 MLOAD PUSH2 0x147 SWAP2 SWAP1 PUSH2 0x44C JUMP JUMPDEST PUSH1 0x40 MLOAD DUP1 SWAP2 SUB SWAP1 RETURN JUMPDEST PUSH2 0x158 PUSH2 0x270 JUMP JUMPDEST PUSH1 0x40 MLOAD PUSH2 0x165 SWAP2 SWAP1 PUSH2 0x44C JUMP JUMPDEST PUSH1 0x40 MLOAD DUP1 SWAP2 SUB SWAP1 RETURN JUMPDEST PUSH2 0x176 PUSH2 0x276 JUMP JUMPDEST PUSH1 0x40 MLOAD PUSH2 0x183 SWAP2 SWAP1 PUSH2 0x37C JUMP JUMPDEST PUSH1 0x40 MLOAD DUP1 SWAP2 SUB SWAP1 RETURN JUMPDEST PUSH0 DUP1 SLOAD PUSH2 0x198 SWAP1 PUSH2 0x492 JUMP JUMPDEST DUP1 PUSH1 0x1F ADD PUSH1 0x20 DUP1 SWAP2 DIV MUL PUSH1 0x20 ADD PUSH1 0x40 MLOAD SWAP1 DUP2 ADD PUSH1 0x40 MSTORE DUP1 SWAP3 SWAP2 SWAP1 DUP2 DUP2 MSTORE PUSH1 0x20 ADD DUP3 DUP1 SLOAD PUSH2 0x1C4 SWAP1 PUSH2 0x492 JUMP JUMPDEST DUP1 ISZERO PUSH2 0x20F JUMPI DUP1 PUSH1 0x1F LT PUSH2 0x1E6 JUMPI PUSH2 0x100 DUP1 DUP4 SLOAD DIV MUL DUP4 MSTORE SWAP2 PUSH1 0x20 ADD SWAP2 PUSH2 0x20F JUMP JUMPDEST DUP3 ADD SWAP2 SWAP1 PUSH0 MSTORE PUSH1 0x20 PUSH0 KECCAK256 SWAP1 JUMPDEST DUP2 SLOAD DUP2 MSTORE SWAP1 PUSH1 0x1 ADD SWAP1 PUSH1 0x20 ADD DUP1 DUP4 GT PUSH2 0x1F2 JUMPI DUP3 SWAP1 SUB PUSH1 0x1F AND DUP3 ADD SWAP2 JUMPDEST POP POP POP POP POP DUP2 JUMP JUMPDEST PUSH1 0x1 PUSH0 SWAP1 SLOAD SWAP1 PUSH2 0x100 EXP SWAP1 DIV PUSH20 0xFFFFFFFFFFFFFFFFFFFFFFFFFFFFFFFFFFFFFFFF AND DUP2 JUMP JUMPDEST PUSH1 0x5 SLOAD DUP2 JUMP JUMPDEST PUSH1 0x1 PUSH1 0x14 SWAP1 SLOAD SWAP1 PUSH2 0x100 EXP SWAP1 DIV PUSH1 0xFF AND DUP2 JUMP JUMPDEST PUSH1 0x4 SLOAD DUP2 JUMP JUMPDEST PUSH0 DUP2 DUP4 PUSH2 0x268 SWAP2 SWAP1 PUSH2 0x4EF JUMP JUMPDEST SWAP1 POP SWAP3 SWAP2 POP POP JUMP JUMPDEST PUSH1 0x2 SLOAD DUP2 JUMP JUMPDEST PUSH1 0x3 SLOAD DUP2 JUMP JUMPDEST PUSH0 DUP2 MLOAD SWAP1 POP SWAP2 SWAP1 POP JUMP JUMPDEST PUSH0 DUP3 DUP3 MSTORE PUSH1 0x20 DUP3 ADD SWAP1 POP SWAP3 SWAP2 POP POP JUMP JUMPDEST DUP3 DUP2 DUP4 MCOPY PUSH0 DUP4 DUP4 ADD MSTORE POP POP POP JUMP JUMPDEST PUSH0 PUSH1 0x1F NOT PUSH1 0x1F DUP4 ADD AND SWAP1 POP SWAP2 SWAP1 POP JUMP JUMPDEST PUSH0 PUSH2 0x2BE DUP3 PUSH2 0x27C JUMP JUMPDEST PUSH2 0x2C8 DUP2 DUP6 PUSH2 0x286 JUMP JUMPDEST SWAP4 POP PUSH2 0x2D8 DUP2 DUP6 PUSH1 0x20 DUP7 ADD PUSH2 0x296 JUMP JUMPDEST PUSH2 0x2E1 DUP2 PUSH2 0x2A4 JUMP JUMPDEST DUP5 ADD SWAP2 POP POP SWAP3 SWAP2 POP POP JUMP JUMPDEST PUSH0 PUSH1 0x20 DUP3 ADD SWAP1 POP DUP2 DUP2 SUB PUSH0 DUP4 ADD MSTORE PUSH2 0x304 DUP2 DUP5 PUSH2 0x2B4 JUMP JUMPDEST SWAP1 POP SWAP3 SWAP2 POP POP JUMP JUMPDEST PUSH0 PUSH20 0xFFFFFFFFFFFFFFFFFFFFFFFFFFFFFFFFFFFFFFFF DUP3 AND SWAP1 POP SWAP2 SWAP1 POP JUMP JUMPDEST PUSH0 PUSH2 0x335 DUP3 PUSH2 0x30C JUMP JUMPDEST SWAP1 POP SWAP2 SWAP1 POP JUMP JUMPDEST PUSH2 0x345 DUP2 PUSH2 0x32B JUMP JUMPDEST DUP3 MSTORE POP POP JUMP JUMPDEST PUSH0 PUSH1 0x20 DUP3 ADD SWAP1 POP PUSH2 0x35E PUSH0 DUP4 ADD DUP5 PUSH2 0x33C JUMP JUMPDEST SWAP3 SWAP2 POP POP JUMP JUMPDEST PUSH0 DUP2 SWAP1 POP SWAP2 SWAP1 POP JUMP JUMPDEST PUSH2 0x376 DUP2 PUSH2 0x364 JUMP JUMPDEST DUP3 MSTORE POP POP JUMP JUMPDEST PUSH0 PUSH1 0x20 DUP3 ADD SWAP1 POP PUSH2 0x38F PUSH0 DUP4 ADD DUP5 PUSH2 0x36D JUMP JUMPDEST SWAP3 SWAP2 POP POP JUMP JUMPDEST PUSH0 DUP2 ISZERO ISZERO SWAP1 POP SWAP2 SWAP1 POP JUMP JUMPDEST PUSH2 0x3A9 DUP2 PUSH2 0x395 JUMP JUMPDEST DUP3 MSTORE POP POP JUMP JUMPDEST PUSH0 PUSH1 0x20 DUP3 ADD SWAP1 POP PUSH2 0x3C2 PUSH0 DUP4 ADD DUP5 PUSH2 0x3A0 JUMP JUMPDEST SWAP3 SWAP2 POP POP JUMP JUMPDEST PUSH0 PUSH0 REVERT JUMPDEST PUSH0 DUP2 SWAP1 POP SWAP2 SWAP1 POP JUMP JUMPDEST PUSH2 0x3DE DUP2 PUSH2 0x3CC JUMP JUMPDEST DUP2 EQ PUSH2 0x3E8 JUMPI PUSH0 PUSH0 REVERT JUMPDEST POP JUMP JUMPDEST PUSH0 DUP2 CALLDATALOAD SWAP1 POP PUSH2 0x3F9 DUP2 PUSH2 0x3D5 JUMP JUMPDEST SWAP3 SWAP2 POP POP JUMP JUMPDEST PUSH0 PUSH0 PUSH1 0x40 DUP4 DUP6 SUB SLT ISZERO PUSH2 0x415 JUMPI PUSH2 0x414 PUSH2 0x3C8 JUMP JUMPDEST JUMPDEST PUSH0 PUSH2 0x422 DUP6 DUP3 DUP7 ADD PUSH2 0x3EB JUMP JUMPDEST SWAP3 POP POP PUSH1 0x20 PUSH2 0x433 DUP6 DUP3 DUP7 ADD PUSH2 0x3EB JUMP JUMPDEST SWAP2 POP POP SWAP3 POP SWAP3 SWAP1 POP JUMP JUMPDEST PUSH2 0x446 DUP2 PUSH2 0x3CC JUMP JUMPDEST DUP3 MSTORE POP POP JUMP JUMPDEST PUSH0 PUSH1 0x20 DUP3 ADD SWAP1 POP PUSH2 0x45F PUSH0 DUP4 ADD DUP5 PUSH2 0x43D JUMP JUMPDEST SWAP3 SWAP2 POP POP JUMP JUMPDEST PUSH32 0x4E487B7100000000000000000000000000000000000000000000000000000000 PUSH0 MSTORE PUSH1 0x22 PUSH1 0x4 MSTORE PUSH1 0x24 PUSH0 REVERT JUMPDEST PUSH0 PUSH1 0x2 DUP3 DIV SWAP1 POP PUSH1 0x1 DUP3 AND DUP1 PUSH2 0x4A9 JUMPI PUSH1 0x7F DUP3 AND SWAP2 POP JUMPDEST PUSH1 0x20 DUP3 LT DUP2 SUB PUSH2 0x4BC JUMPI PUSH2 0x4BB PUSH2 0x465 JUMP JUMPDEST JUMPDEST POP SWAP2 SWAP1 POP JUMP JUMPDEST PUSH32 0x4E487B7100000000000000000000000000000000000000000000000000000000 PUSH0 MSTORE PUSH1 0x11 PUSH1 0x4 MSTORE PUSH1 0x24 PUSH0 REVERT JUMPDEST PUSH0 PUSH2 0x4F9 DUP3 PUSH2 0x3CC JUMP JUMPDEST SWAP2 POP PUSH2 0x504 DUP4 PUSH2 0x3CC JUMP JUMPDEST SWAP3 POP DUP3 DUP3 ADD SWAP1 POP DUP1 DUP3 GT ISZERO PUSH2 0x51C JUMPI PUSH2 0x51B PUSH2 0x4C2 JUMP JUMPDEST JUMPDEST SWAP3 SWAP2 POP POP JUMP INVALID LOG2 PUSH5 0x6970667358 0x22 SLT KECCAK256 MSIZE DUP15 0xF6 DUP14 0x1F PUSH14 0xBACF9362757CDE0E90020B9BE9FF DUP6 RETURNDATACOPY SWAP11 DUPN 0xC3 0xD2 SWAP11 CALLDATASIZE KECCAK256 CALLDATALOAD 0xE8 XOR PUSH5 0x736F6C6343 STOP ADDMOD 0x1E STOP CALLER "
				},
				"gasEstimates": {
					"creation": {
						"codeDepositCost": "273600",
						"executionCost": "infinite",
						"totalCost": "infinite"
					},
					"external": {
						"addFunction(uint256,uint256)": "infinite",
						"addressMy()": "2531",
						"b()": "2584",
						"i()": "2491",
						"minInt()": "2425",
						"minMax()": "2470",
						"my()": "infinite",
						"u()": "2469"
					}
				},
				"methodIdentifiers": {
					"addFunction(uint256,uint256)": "b5907928",
					"addressMy()": "1ea76c9d",
					"b()": "4df7e3d0",
					"i()": "e5aa3d58",
					"minInt()": "7e4e14cc",
					"minMax()": "21e17a91",
					"my()": "0f0cb966",
					"u()": "c6a898c5"
				}
			},
			"storageLayout": {
				"storage": [
					{
						"astId": 4,
						"contract": "hw.sol:HW",
						"label": "my",
						"offset": 0,
						"slot": "0",
						"type": "t_string_storage"
					},
					{
						"astId": 6,
						"contract": "hw.sol:HW",
						"label": "addressMy",
						"offset": 0,
						"slot": "1",
						"type": "t_address"
					},
					{
						"astId": 24,
						"contract": "hw.sol:HW",
						"label": "b",
						"offset": 20,
						"slot": "1",
						"type": "t_bool"
					},
					{
						"astId": 27,
						"contract": "hw.sol:HW",
						"label": "u",
						"offset": 0,
						"slot": "2",
						"type": "t_uint256"
					},
					{
						"astId": 30,
						"contract": "hw.sol:HW",
						"label": "i",
						"offset": 0,
						"slot": "3",
						"type": "t_int256"
					},
					{
						"astId": 37,
						"contract": "hw.sol:HW",
						"label": "minInt",
						"offset": 0,
						"slot": "4",
						"type": "t_int256"
					},
					{
						"astId": 44,
						"contract": "hw.sol:HW",
						"label": "minMax",
						"offset": 0,
						"slot": "5",
						"type": "t_int256"
					}
				],
				"types": {
					"t_address": {
						"encoding": "inplace",
						"label": "address",
						"numberOfBytes": "20"
					},
					"t_bool": {
						"encoding": "inplace",
						"label": "bool",
						"numberOfBytes": "1"
					},
					"t_int256": {
						"encoding": "inplace",
						"label": "int256",
						"numberOfBytes": "32"
					},
					"t_string_storage": {
						"encoding": "bytes",
						"label": "string",
						"numberOfBytes": "32"
					},
					"t_uint256": {
						"encoding": "inplace",
						"label": "uint256",
						"numberOfBytes": "32"
					}
				}
			},
			"userdoc": {
				"kind": "user",
				"methods": {},
				"version": 1
			}
		}
	}
}